{
  "contractName": "StakeToken",
  "abi": [
    {
      "inputs": [],
      "stateMutability": "nonpayable",
      "type": "constructor"
    },
    {
      "anonymous": false,
      "inputs": [
        {
          "indexed": true,
          "internalType": "address",
          "name": "owner",
          "type": "address"
        },
        {
          "indexed": true,
          "internalType": "address",
          "name": "spender",
          "type": "address"
        },
        {
          "indexed": false,
          "internalType": "uint256",
          "name": "value",
          "type": "uint256"
        }
      ],
      "name": "Approval",
      "type": "event"
    },
    {
      "anonymous": false,
      "inputs": [
        {
          "indexed": true,
          "internalType": "address",
          "name": "from",
          "type": "address"
        },
        {
          "indexed": true,
          "internalType": "address",
          "name": "to",
          "type": "address"
        },
        {
          "indexed": false,
          "internalType": "uint256",
          "name": "value",
          "type": "uint256"
        }
      ],
      "name": "Transfer",
      "type": "event"
    },
    {
      "inputs": [
        {
          "internalType": "address",
          "name": "owner",
          "type": "address"
        },
        {
          "internalType": "address",
          "name": "spender",
          "type": "address"
        }
      ],
      "name": "allowance",
      "outputs": [
        {
          "internalType": "uint256",
          "name": "",
          "type": "uint256"
        }
      ],
      "stateMutability": "view",
      "type": "function"
    },
    {
      "inputs": [
        {
          "internalType": "address",
          "name": "spender",
          "type": "address"
        },
        {
          "internalType": "uint256",
          "name": "amount",
          "type": "uint256"
        }
      ],
      "name": "approve",
      "outputs": [
        {
          "internalType": "bool",
          "name": "",
          "type": "bool"
        }
      ],
      "stateMutability": "nonpayable",
      "type": "function"
    },
    {
      "inputs": [
        {
          "internalType": "address",
          "name": "account",
          "type": "address"
        }
      ],
      "name": "balanceOf",
      "outputs": [
        {
          "internalType": "uint256",
          "name": "",
          "type": "uint256"
        }
      ],
      "stateMutability": "view",
      "type": "function"
    },
    {
      "inputs": [],
      "name": "cap",
      "outputs": [
        {
          "internalType": "uint256",
          "name": "",
          "type": "uint256"
        }
      ],
      "stateMutability": "view",
      "type": "function"
    },
    {
      "inputs": [],
      "name": "decimals",
      "outputs": [
        {
          "internalType": "uint8",
          "name": "",
          "type": "uint8"
        }
      ],
      "stateMutability": "view",
      "type": "function"
    },
    {
      "inputs": [
        {
          "internalType": "address",
          "name": "spender",
          "type": "address"
        },
        {
          "internalType": "uint256",
          "name": "subtractedValue",
          "type": "uint256"
        }
      ],
      "name": "decreaseAllowance",
      "outputs": [
        {
          "internalType": "bool",
          "name": "",
          "type": "bool"
        }
      ],
      "stateMutability": "nonpayable",
      "type": "function"
    },
    {
      "inputs": [
        {
          "internalType": "address",
          "name": "spender",
          "type": "address"
        },
        {
          "internalType": "uint256",
          "name": "addedValue",
          "type": "uint256"
        }
      ],
      "name": "increaseAllowance",
      "outputs": [
        {
          "internalType": "bool",
          "name": "",
          "type": "bool"
        }
      ],
      "stateMutability": "nonpayable",
      "type": "function"
    },
    {
      "inputs": [],
      "name": "name",
      "outputs": [
        {
          "internalType": "string",
          "name": "",
          "type": "string"
        }
      ],
      "stateMutability": "view",
      "type": "function"
    },
    {
      "inputs": [],
      "name": "symbol",
      "outputs": [
        {
          "internalType": "string",
          "name": "",
          "type": "string"
        }
      ],
      "stateMutability": "view",
      "type": "function"
    },
    {
      "inputs": [],
      "name": "totalSupply",
      "outputs": [
        {
          "internalType": "uint256",
          "name": "",
          "type": "uint256"
        }
      ],
      "stateMutability": "view",
      "type": "function"
    },
    {
      "inputs": [
        {
          "internalType": "address",
          "name": "to",
          "type": "address"
        },
        {
          "internalType": "uint256",
          "name": "amount",
          "type": "uint256"
        }
      ],
      "name": "transfer",
      "outputs": [
        {
          "internalType": "bool",
          "name": "",
          "type": "bool"
        }
      ],
      "stateMutability": "nonpayable",
      "type": "function"
    },
    {
      "inputs": [
        {
          "internalType": "address",
          "name": "from",
          "type": "address"
        },
        {
          "internalType": "address",
          "name": "to",
          "type": "address"
        },
        {
          "internalType": "uint256",
          "name": "amount",
          "type": "uint256"
        }
      ],
      "name": "transferFrom",
      "outputs": [
        {
          "internalType": "bool",
          "name": "",
          "type": "bool"
        }
      ],
      "stateMutability": "nonpayable",
      "type": "function"
    },
    {
      "inputs": [
        {
          "internalType": "address",
          "name": "_to",
          "type": "address"
        },
        {
          "internalType": "uint256",
          "name": "_amount",
          "type": "uint256"
        }
      ],
      "name": "mint",
      "outputs": [],
      "stateMutability": "nonpayable",
      "type": "function"
    }
  ],
  "bytecode": "0x60a06040523480156200001157600080fd5b50620000226200013660201b60201c565b600a620000309190620002a4565b631dcd6500620000419190620003e1565b6040518060400160405280600a81526020017f5374616b65546f6b656e000000000000000000000000000000000000000000008152506040518060400160405280600281526020017f53540000000000000000000000000000000000000000000000000000000000008152508160039080519060200190620000c59291906200013f565b508060049080519060200190620000de9291906200013f565b5050506000811162000127576040517f08c379a00000000000000000000000000000000000000000000000000000000081526004016200011e9062000216565b60405180910390fd5b80608081815250505062000523565b60006012905090565b8280546200014d9062000459565b90600052602060002090601f016020900481019282620001715760008555620001bd565b82601f106200018c57805160ff1916838001178555620001bd565b82800160010185558215620001bd579182015b82811115620001bc5782518255916020019190600101906200019f565b5b509050620001cc9190620001d0565b5090565b5b80821115620001eb576000816000905550600101620001d1565b5090565b6000620001fe60158362000238565b91506200020b82620004fa565b602082019050919050565b600060208201905081810360008301526200023181620001ef565b9050919050565b600082825260208201905092915050565b6000808291508390505b60018511156200029b578086048111156200027357620002726200048f565b5b6001851615620002835780820291505b80810290506200029385620004ed565b945062000253565b94509492505050565b6000620002b18262000442565b9150620002be836200044c565b9250620002ed7fffffffffffffffffffffffffffffffffffffffffffffffffffffffffffffffff8484620002f5565b905092915050565b600082620003075760019050620003da565b81620003175760009050620003da565b81600181146200033057600281146200033b5762000371565b6001915050620003da565b60ff84111562000350576200034f6200048f565b5b8360020a9150848211156200036a57620003696200048f565b5b50620003da565b5060208310610133831016604e8410600b8410161715620003ab5782820a905083811115620003a557620003a46200048f565b5b620003da565b620003ba848484600162000249565b92509050818404811115620003d457620003d36200048f565b5b81810290505b9392505050565b6000620003ee8262000442565b9150620003fb8362000442565b9250817fffffffffffffffffffffffffffffffffffffffffffffffffffffffffffffffff04831182151516156200043757620004366200048f565b5b828202905092915050565b6000819050919050565b600060ff82169050919050565b600060028204905060018216806200047257607f821691505b60208210811415620004895762000488620004be565b5b50919050565b7f4e487b7100000000000000000000000000000000000000000000000000000000600052601160045260246000fd5b7f4e487b7100000000000000000000000000000000000000000000000000000000600052602260045260246000fd5b60008160011c9050919050565b7f45524332304361707065643a2063617020697320300000000000000000000000600082015250565b6080516116716200053f60003960006103d101526116716000f3fe608060405234801561001057600080fd5b50600436106100cf5760003560e01c8063395093511161008c57806395d89b411161006657806395d89b4114610228578063a457c2d714610246578063a9059cbb14610276578063dd62ed3e146102a6576100cf565b806339509351146101ac57806340c10f19146101dc57806370a08231146101f8576100cf565b806306fdde03146100d4578063095ea7b3146100f257806318160ddd1461012257806323b872dd14610140578063313ce56714610170578063355274ea1461018e575b600080fd5b6100dc6102d6565b6040516100e991906110a5565b60405180910390f35b61010c60048036038101906101079190610ead565b610368565b604051610119919061108a565b60405180910390f35b61012a61038b565b60405161013791906111e7565b60405180910390f35b61015a60048036038101906101559190610e5e565b610395565b604051610167919061108a565b60405180910390f35b6101786103c4565b6040516101859190611202565b60405180910390f35b6101966103cd565b6040516101a391906111e7565b60405180910390f35b6101c660048036038101906101c19190610ead565b6103f5565b6040516101d3919061108a565b60405180910390f35b6101f660048036038101906101f19190610ead565b61049f565b005b610212600480360381019061020d9190610df9565b6104ad565b60405161021f91906111e7565b60405180910390f35b6102306104f5565b60405161023d91906110a5565b60405180910390f35b610260600480360381019061025b9190610ead565b610587565b60405161026d919061108a565b60405180910390f35b610290600480360381019061028b9190610ead565b610671565b60405161029d919061108a565b60405180910390f35b6102c060048036038101906102bb9190610e22565b610694565b6040516102cd91906111e7565b60405180910390f35b6060600380546102e590611317565b80601f016020809104026020016040519081016040528092919081815260200182805461031190611317565b801561035e5780601f106103335761010080835404028352916020019161035e565b820191906000526020600020905b81548152906001019060200180831161034157829003601f168201915b5050505050905090565b60008061037361071b565b9050610380818585610723565b600191505092915050565b6000600254905090565b6000806103a061071b565b90506103ad8582856108ee565b6103b885858561097a565b60019150509392505050565b60006012905090565b60007f0000000000000000000000000000000000000000000000000000000000000000905090565b60008061040061071b565b9050610494818585600160008673ffffffffffffffffffffffffffffffffffffffff1673ffffffffffffffffffffffffffffffffffffffff16815260200190815260200160002060008973ffffffffffffffffffffffffffffffffffffffff1673ffffffffffffffffffffffffffffffffffffffff1681526020019081526020016000205461048f9190611239565b610723565b600191505092915050565b6104a98282610bfb565b5050565b60008060008373ffffffffffffffffffffffffffffffffffffffff1673ffffffffffffffffffffffffffffffffffffffff168152602001908152602001600020549050919050565b60606004805461050490611317565b80601f016020809104026020016040519081016040528092919081815260200182805461053090611317565b801561057d5780601f106105525761010080835404028352916020019161057d565b820191906000526020600020905b81548152906001019060200180831161056057829003601f168201915b5050505050905090565b60008061059261071b565b90506000600160008373ffffffffffffffffffffffffffffffffffffffff1673ffffffffffffffffffffffffffffffffffffffff16815260200190815260200160002060008673ffffffffffffffffffffffffffffffffffffffff1673ffffffffffffffffffffffffffffffffffffffff16815260200190815260200160002054905083811015610658576040517f08c379a000000000000000000000000000000000000000000000000000000000815260040161064f906111a7565b60405180910390fd5b6106658286868403610723565b60019250505092915050565b60008061067c61071b565b905061068981858561097a565b600191505092915050565b6000600160008473ffffffffffffffffffffffffffffffffffffffff1673ffffffffffffffffffffffffffffffffffffffff16815260200190815260200160002060008373ffffffffffffffffffffffffffffffffffffffff1673ffffffffffffffffffffffffffffffffffffffff16815260200190815260200160002054905092915050565b600033905090565b600073ffffffffffffffffffffffffffffffffffffffff168373ffffffffffffffffffffffffffffffffffffffff161415610793576040517f08c379a000000000000000000000000000000000000000000000000000000000815260040161078a90611187565b60405180910390fd5b600073ffffffffffffffffffffffffffffffffffffffff168273ffffffffffffffffffffffffffffffffffffffff161415610803576040517f08c379a00000000000000000000000000000000000000000000000000000000081526004016107fa906110e7565b60405180910390fd5b80600160008573ffffffffffffffffffffffffffffffffffffffff1673ffffffffffffffffffffffffffffffffffffffff16815260200190815260200160002060008473ffffffffffffffffffffffffffffffffffffffff1673ffffffffffffffffffffffffffffffffffffffff168152602001908152602001600020819055508173ffffffffffffffffffffffffffffffffffffffff168373ffffffffffffffffffffffffffffffffffffffff167f8c5be1e5ebec7d5bd14f71427d1e84f3dd0314c0f7b2291e5b200ac8c7c3b925836040516108e191906111e7565b60405180910390a3505050565b60006108fa8484610694565b90507fffffffffffffffffffffffffffffffffffffffffffffffffffffffffffffffff81146109745781811015610966576040517f08c379a000000000000000000000000000000000000000000000000000000000815260040161095d90611107565b60405180910390fd5b6109738484848403610723565b5b50505050565b600073ffffffffffffffffffffffffffffffffffffffff168373ffffffffffffffffffffffffffffffffffffffff1614156109ea576040517f08c379a00000000000000000000000000000000000000000000000000000000081526004016109e190611147565b60405180910390fd5b600073ffffffffffffffffffffffffffffffffffffffff168273ffffffffffffffffffffffffffffffffffffffff161415610a5a576040517f08c379a0000000000000000000000000000000000000000000000000000000008152600401610a51906110c7565b60405180910390fd5b610a65838383610c65565b60008060008573ffffffffffffffffffffffffffffffffffffffff1673ffffffffffffffffffffffffffffffffffffffff16815260200190815260200160002054905081811015610aeb576040517f08c379a0000000000000000000000000000000000000000000000000000000008152600401610ae290611127565b60405180910390fd5b8181036000808673ffffffffffffffffffffffffffffffffffffffff1673ffffffffffffffffffffffffffffffffffffffff16815260200190815260200160002081905550816000808573ffffffffffffffffffffffffffffffffffffffff1673ffffffffffffffffffffffffffffffffffffffff1681526020019081526020016000206000828254610b7e9190611239565b925050819055508273ffffffffffffffffffffffffffffffffffffffff168473ffffffffffffffffffffffffffffffffffffffff167fddf252ad1be2c89b69c2b068fc378daa952ba7f163c4a11628f55a4df523b3ef84604051610be291906111e7565b60405180910390a3610bf5848484610c6a565b50505050565b610c036103cd565b81610c0c61038b565b610c169190611239565b1115610c57576040517f08c379a0000000000000000000000000000000000000000000000000000000008152600401610c4e90611167565b60405180910390fd5b610c618282610c6f565b5050565b505050565b505050565b600073ffffffffffffffffffffffffffffffffffffffff168273ffffffffffffffffffffffffffffffffffffffff161415610cdf576040517f08c379a0000000000000000000000000000000000000000000000000000000008152600401610cd6906111c7565b60405180910390fd5b610ceb60008383610c65565b8060026000828254610cfd9190611239565b92505081905550806000808473ffffffffffffffffffffffffffffffffffffffff1673ffffffffffffffffffffffffffffffffffffffff1681526020019081526020016000206000828254610d529190611239565b925050819055508173ffffffffffffffffffffffffffffffffffffffff16600073ffffffffffffffffffffffffffffffffffffffff167fddf252ad1be2c89b69c2b068fc378daa952ba7f163c4a11628f55a4df523b3ef83604051610db791906111e7565b60405180910390a3610dcb60008383610c6a565b5050565b600081359050610dde8161160d565b92915050565b600081359050610df381611624565b92915050565b600060208284031215610e0b57600080fd5b6000610e1984828501610dcf565b91505092915050565b60008060408385031215610e3557600080fd5b6000610e4385828601610dcf565b9250506020610e5485828601610dcf565b9150509250929050565b600080600060608486031215610e7357600080fd5b6000610e8186828701610dcf565b9350506020610e9286828701610dcf565b9250506040610ea386828701610de4565b9150509250925092565b60008060408385031215610ec057600080fd5b6000610ece85828601610dcf565b9250506020610edf85828601610de4565b9150509250929050565b610ef2816112a1565b82525050565b6000610f038261121d565b610f0d8185611228565b9350610f1d8185602086016112e4565b610f26816113a7565b840191505092915050565b6000610f3e602383611228565b9150610f49826113b8565b604082019050919050565b6000610f61602283611228565b9150610f6c82611407565b604082019050919050565b6000610f84601d83611228565b9150610f8f82611456565b602082019050919050565b6000610fa7602683611228565b9150610fb28261147f565b604082019050919050565b6000610fca602583611228565b9150610fd5826114ce565b604082019050919050565b6000610fed601983611228565b9150610ff88261151d565b602082019050919050565b6000611010602483611228565b915061101b82611546565b604082019050919050565b6000611033602583611228565b915061103e82611595565b604082019050919050565b6000611056601f83611228565b9150611061826115e4565b602082019050919050565b611075816112cd565b82525050565b611084816112d7565b82525050565b600060208201905061109f6000830184610ee9565b92915050565b600060208201905081810360008301526110bf8184610ef8565b905092915050565b600060208201905081810360008301526110e081610f31565b9050919050565b6000602082019050818103600083015261110081610f54565b9050919050565b6000602082019050818103600083015261112081610f77565b9050919050565b6000602082019050818103600083015261114081610f9a565b9050919050565b6000602082019050818103600083015261116081610fbd565b9050919050565b6000602082019050818103600083015261118081610fe0565b9050919050565b600060208201905081810360008301526111a081611003565b9050919050565b600060208201905081810360008301526111c081611026565b9050919050565b600060208201905081810360008301526111e081611049565b9050919050565b60006020820190506111fc600083018461106c565b92915050565b6000602082019050611217600083018461107b565b92915050565b600081519050919050565b600082825260208201905092915050565b6000611244826112cd565b915061124f836112cd565b9250827fffffffffffffffffffffffffffffffffffffffffffffffffffffffffffffffff0382111561128457611283611349565b5b828201905092915050565b600061129a826112ad565b9050919050565b60008115159050919050565b600073ffffffffffffffffffffffffffffffffffffffff82169050919050565b6000819050919050565b600060ff82169050919050565b60005b838110156113025780820151818401526020810190506112e7565b83811115611311576000848401525b50505050565b6000600282049050600182168061132f57607f821691505b6020821081141561134357611342611378565b5b50919050565b7f4e487b7100000000000000000000000000000000000000000000000000000000600052601160045260246000fd5b7f4e487b7100000000000000000000000000000000000000000000000000000000600052602260045260246000fd5b6000601f19601f8301169050919050565b7f45524332303a207472616e7366657220746f20746865207a65726f206164647260008201527f6573730000000000000000000000000000000000000000000000000000000000602082015250565b7f45524332303a20617070726f766520746f20746865207a65726f20616464726560008201527f7373000000000000000000000000000000000000000000000000000000000000602082015250565b7f45524332303a20696e73756666696369656e7420616c6c6f77616e6365000000600082015250565b7f45524332303a207472616e7366657220616d6f756e742065786365656473206260008201527f616c616e63650000000000000000000000000000000000000000000000000000602082015250565b7f45524332303a207472616e736665722066726f6d20746865207a65726f20616460008201527f6472657373000000000000000000000000000000000000000000000000000000602082015250565b7f45524332304361707065643a2063617020657863656564656400000000000000600082015250565b7f45524332303a20617070726f76652066726f6d20746865207a65726f2061646460008201527f7265737300000000000000000000000000000000000000000000000000000000602082015250565b7f45524332303a2064656372656173656420616c6c6f77616e63652062656c6f7760008201527f207a65726f000000000000000000000000000000000000000000000000000000602082015250565b7f45524332303a206d696e7420746f20746865207a65726f206164647265737300600082015250565b6116168161128f565b811461162157600080fd5b50565b61162d816112cd565b811461163857600080fd5b5056fea2646970667358221220379bab299a6143360e1e8169435d61d92d35f69666c16dd97627406f8f4cbfce64736f6c63430008020033",
  "immutableReferences": {
    "778": [
      {
        "length": 32,
        "start": 977
      }
    ]
  },
  "source": "     // SPDX-License-Identifier: MIT\r\npragma solidity ^0.8.2;\r\nimport \"@openzeppelin/contracts/token/ERC20/extensions/ERC20Capped.sol\";\r\n\r\ncontract StakeToken is ERC20Capped{\r\n    constructor() ERC20Capped(500000000*10**decimals()) ERC20(\"StakeToken\",\"ST\"){\r\n        \r\n    }\r\n    function mint(address _to,uint _amount) external{\r\n        _mint(_to,_amount);\r\n    }\r\n}\r\n\r\n",
  "sourcePath": "C:\\BigImmersiive\\Staking-and-rewarding-\\contracts\\StakeToken.sol",
  "compiler": {
    "name": "solc",
    "version": "0.8.2+commit.661d1103.Emscripten.clang"
  },
  "schemaVersion": "3.4.6",
  "updatedAt": "2022-04-13T11:27:14.557Z",
  "devdoc": {
    "kind": "dev",
    "methods": {
      "allowance(address,address)": {
        "details": "See {IERC20-allowance}."
      },
      "approve(address,uint256)": {
        "details": "See {IERC20-approve}. NOTE: If `amount` is the maximum `uint256`, the allowance is not updated on `transferFrom`. This is semantically equivalent to an infinite approval. Requirements: - `spender` cannot be the zero address."
      },
      "balanceOf(address)": {
        "details": "See {IERC20-balanceOf}."
      },
      "cap()": {
        "details": "Returns the cap on the token's total supply."
      },
      "decimals()": {
        "details": "Returns the number of decimals used to get its user representation. For example, if `decimals` equals `2`, a balance of `505` tokens should be displayed to a user as `5.05` (`505 / 10 ** 2`). Tokens usually opt for a value of 18, imitating the relationship between Ether and Wei. This is the value {ERC20} uses, unless this function is overridden; NOTE: This information is only used for _display_ purposes: it in no way affects any of the arithmetic of the contract, including {IERC20-balanceOf} and {IERC20-transfer}."
      },
      "decreaseAllowance(address,uint256)": {
        "details": "Atomically decreases the allowance granted to `spender` by the caller. This is an alternative to {approve} that can be used as a mitigation for problems described in {IERC20-approve}. Emits an {Approval} event indicating the updated allowance. Requirements: - `spender` cannot be the zero address. - `spender` must have allowance for the caller of at least `subtractedValue`."
      },
      "increaseAllowance(address,uint256)": {
        "details": "Atomically increases the allowance granted to `spender` by the caller. This is an alternative to {approve} that can be used as a mitigation for problems described in {IERC20-approve}. Emits an {Approval} event indicating the updated allowance. Requirements: - `spender` cannot be the zero address."
      },
      "name()": {
        "details": "Returns the name of the token."
      },
      "symbol()": {
        "details": "Returns the symbol of the token, usually a shorter version of the name."
      },
      "totalSupply()": {
        "details": "See {IERC20-totalSupply}."
      },
      "transfer(address,uint256)": {
        "details": "See {IERC20-transfer}. Requirements: - `to` cannot be the zero address. - the caller must have a balance of at least `amount`."
      },
      "transferFrom(address,address,uint256)": {
        "details": "See {IERC20-transferFrom}. Emits an {Approval} event indicating the updated allowance. This is not required by the EIP. See the note at the beginning of {ERC20}. NOTE: Does not update the allowance if the current allowance is the maximum `uint256`. Requirements: - `from` and `to` cannot be the zero address. - `from` must have a balance of at least `amount`. - the caller must have allowance for ``from``'s tokens of at least `amount`."
      }
    },
    "version": 1
  },
  "userdoc": {
    "kind": "user",
    "methods": {},
    "version": 1
  }
}